{
  "contractName": "VehicleRegistry",
  "abi": [
    {
      "constant": true,
      "inputs": [],
      "name": "NumberOfVehicles",
      "outputs": [
        {
          "name": "",
          "type": "uint256"
        }
      ],
      "payable": false,
      "stateMutability": "view",
      "type": "function"
    },
    {
      "constant": true,
      "inputs": [
        {
          "name": "",
          "type": "uint256"
        }
      ],
      "name": "vehicles",
      "outputs": [
        {
          "name": "id",
          "type": "uint256"
        },
        {
          "name": "owner",
          "type": "address"
        },
        {
          "name": "make",
          "type": "string"
        },
        {
          "name": "model",
          "type": "string"
        },
        {
          "name": "year",
          "type": "string"
        },
        {
          "name": "color",
          "type": "string"
        },
        {
          "name": "licensePlate",
          "type": "string"
        },
        {
          "name": "VIN",
          "type": "string"
        }
      ],
      "payable": false,
      "stateMutability": "view",
      "type": "function"
    },
    {
      "constant": true,
      "inputs": [],
      "name": "admin",
      "outputs": [
        {
          "name": "",
          "type": "address"
        }
      ],
      "payable": false,
      "stateMutability": "view",
      "type": "function"
    },
    {
      "inputs": [],
      "payable": false,
      "stateMutability": "nonpayable",
      "type": "constructor"
    },
    {
      "payable": false,
      "stateMutability": "nonpayable",
      "type": "fallback"
    },
    {
      "anonymous": false,
      "inputs": [
        {
          "indexed": false,
          "name": "id",
          "type": "uint256"
        },
        {
          "indexed": false,
          "name": "owner",
          "type": "address"
        }
      ],
      "name": "VehicleRegistered",
      "type": "event"
    },
    {
      "anonymous": false,
      "inputs": [
        {
          "indexed": false,
          "name": "id",
          "type": "uint256"
        },
        {
          "indexed": false,
          "name": "OldOwner",
          "type": "address"
        },
        {
          "indexed": false,
          "name": "NewOwner",
          "type": "address"
        }
      ],
      "name": "VehicleTransferred",
      "type": "event"
    },
    {
      "constant": true,
      "inputs": [],
      "name": "Balance",
      "outputs": [
        {
          "name": "balance",
          "type": "uint256"
        }
      ],
      "payable": false,
      "stateMutability": "view",
      "type": "function"
    },
    {
      "constant": false,
      "inputs": [
        {
          "name": "make",
          "type": "string"
        },
        {
          "name": "model",
          "type": "string"
        },
        {
          "name": "year",
          "type": "string"
        },
        {
          "name": "color",
          "type": "string"
        },
        {
          "name": "licensePlate",
          "type": "string"
        },
        {
          "name": "VIN",
          "type": "string"
        }
      ],
      "name": "RegisterVehicle",
      "outputs": [],
      "payable": true,
      "stateMutability": "payable",
      "type": "function"
    },
    {
      "constant": false,
      "inputs": [
        {
          "name": "id",
          "type": "uint256"
        },
        {
          "name": "newOwner",
          "type": "address"
        }
      ],
      "name": "TransferOwnership",
      "outputs": [],
      "payable": true,
      "stateMutability": "payable",
      "type": "function"
    },
    {
      "constant": false,
      "inputs": [
        {
          "name": "newAdmin",
          "type": "address"
        }
      ],
      "name": "ChangeAdmin",
      "outputs": [],
      "payable": false,
      "stateMutability": "nonpayable",
      "type": "function"
    },
    {
      "constant": false,
      "inputs": [
        {
          "name": "newCommission",
          "type": "uint256"
        }
      ],
      "name": "SetCommission",
      "outputs": [],
      "payable": false,
      "stateMutability": "nonpayable",
      "type": "function"
    },
    {
      "constant": false,
      "inputs": [
        {
          "name": "balance",
          "type": "uint256"
        }
      ],
      "name": "Withdraw",
      "outputs": [
        {
          "name": "success",
          "type": "bool"
        }
      ],
      "payable": false,
      "stateMutability": "nonpayable",
      "type": "function"
    },
    {
      "constant": false,
      "inputs": [],
      "name": "kill",
      "outputs": [],
      "payable": false,
      "stateMutability": "nonpayable",
      "type": "function"
    }
  ],
  "bytecode": "0x608060405234801561001057600080fd5b50336000806101000a81548173ffffffffffffffffffffffffffffffffffffffff021916908373ffffffffffffffffffffffffffffffffffffffff1602179055506000600381905550670de0b6b3a7640000600181905550611359806100776000396000f3006080604052600436106100a4576000357c0100000000000000000000000000000000000000000000000000000000900463ffffffff1680630cf8e1ba146100b65780630ef6788714610270578063339d61ae1461029b57806341c0e1b5146102db5780635b6b431d146102f25780636ea5803114610337578063927cc064146103645780639776adb9146103a7578063b8ba95fa146103d2578063f851a440146106ce575b3480156100b057600080fd5b50600080fd5b61026e600480360381019080803590602001908201803590602001908080601f0160208091040260200160405190810160405280939291908181526020018383808284378201915050505050509192919290803590602001908201803590602001908080601f0160208091040260200160405190810160405280939291908181526020018383808284378201915050505050509192919290803590602001908201803590602001908080601f0160208091040260200160405190810160405280939291908181526020018383808284378201915050505050509192919290803590602001908201803590602001908080601f0160208091040260200160405190810160405280939291908181526020018383808284378201915050505050509192919290803590602001908201803590602001908080601f0160208091040260200160405190810160405280939291908181526020018383808284378201915050505050509192919290803590602001908201803590602001908080601f0160208091040260200160405190810160405280939291908181526020018383808284378201915050505050509192919290505050610725565b005b34801561027c57600080fd5b50610285610959565b6040518082815260200191505060405180910390f35b6102d960048036038101908080359060200190929190803573ffffffffffffffffffffffffffffffffffffffff1690602001909291905050506109d3565b005b3480156102e757600080fd5b506102f0610b86565b005b3480156102fe57600080fd5b5061031d60048036038101908080359060200190929190505050610c1b565b604051808215151515815260200191505060405180910390f35b34801561034357600080fd5b5061036260048036038101908080359060200190929190505050610d06565b005b34801561037057600080fd5b506103a5600480360381019080803573ffffffffffffffffffffffffffffffffffffffff169060200190929190505050610d6b565b005b3480156103b357600080fd5b506103bc610e09565b6040518082815260200191505060405180910390f35b3480156103de57600080fd5b506103fd60048036038101908080359060200190929190505050610e0f565b604051808981526020018873ffffffffffffffffffffffffffffffffffffffff1673ffffffffffffffffffffffffffffffffffffffff16815260200180602001806020018060200180602001806020018060200187810387528d818151815260200191508051906020019080838360005b8381101561048957808201518184015260208101905061046e565b50505050905090810190601f1680156104b65780820380516001836020036101000a031916815260200191505b5087810386528c818151815260200191508051906020019080838360005b838110156104ef5780820151818401526020810190506104d4565b50505050905090810190601f16801561051c5780820380516001836020036101000a031916815260200191505b5087810385528b818151815260200191508051906020019080838360005b8381101561055557808201518184015260208101905061053a565b50505050905090810190601f1680156105825780820380516001836020036101000a031916815260200191505b5087810384528a818151815260200191508051906020019080838360005b838110156105bb5780820151818401526020810190506105a0565b50505050905090810190601f1680156105e85780820380516001836020036101000a031916815260200191505b50878103835289818151815260200191508051906020019080838360005b83811015610621578082015181840152602081019050610606565b50505050905090810190601f16801561064e5780820380516001836020036101000a031916815260200191505b50878103825288818151815260200191508051906020019080838360005b8381101561068757808201518184015260208101905061066c565b50505050905090810190601f1680156106b45780820380516001836020036101000a031916815260200191505b509e50505050505050505050505050505060405180910390f35b3480156106da57600080fd5b506106e3611207565b604051808273ffffffffffffffffffffffffffffffffffffffff1673ffffffffffffffffffffffffffffffffffffffff16815260200191505060405180910390f35b61072d61122c565b60015434101561073c57600080fd5b60035481600001818152505033816020019073ffffffffffffffffffffffffffffffffffffffff16908173ffffffffffffffffffffffffffffffffffffffff1681525050868160400181905250858160600181905250848160800181905250838160a00181905250828160c00181905250818160e00181905250806002600060035481526020019081526020016000206000820151816000015560208201518160010160006101000a81548173ffffffffffffffffffffffffffffffffffffffff021916908373ffffffffffffffffffffffffffffffffffffffff1602179055506040820151816002019080519060200190610839929190611288565b506060820151816003019080519060200190610856929190611288565b506080820151816004019080519060200190610873929190611288565b5060a0820151816005019080519060200190610890929190611288565b5060c08201518160060190805190602001906108ad929190611288565b5060e08201518160070190805190602001906108ca929190611288565b509050507f5f392c61d263d5e43db807b3b3eb4fec5e7bd977dd126fae15e5f4263ade1d576003548260200151604051808381526020018273ffffffffffffffffffffffffffffffffffffffff1673ffffffffffffffffffffffffffffffffffffffff1681526020019250505060405180910390a1600160036000828254019250508190555050505050505050565b60008060009054906101000a900473ffffffffffffffffffffffffffffffffffffffff1673ffffffffffffffffffffffffffffffffffffffff163373ffffffffffffffffffffffffffffffffffffffff161415156109b657600080fd5b3073ffffffffffffffffffffffffffffffffffffffff1631905090565b60006001543410156109e457600080fd5b3373ffffffffffffffffffffffffffffffffffffffff166002600085815260200190815260200160002060010160009054906101000a900473ffffffffffffffffffffffffffffffffffffffff1673ffffffffffffffffffffffffffffffffffffffff16141515610a5457600080fd5b6002600084815260200190815260200160002060010160009054906101000a900473ffffffffffffffffffffffffffffffffffffffff169050816002600085815260200190815260200160002060010160006101000a81548173ffffffffffffffffffffffffffffffffffffffff021916908373ffffffffffffffffffffffffffffffffffffffff1602179055507f52a1ea50926be2b723dca87dfb94f131e588b37cf44a15749e2c5c362c00f4e0838284604051808481526020018373ffffffffffffffffffffffffffffffffffffffff1673ffffffffffffffffffffffffffffffffffffffff1681526020018273ffffffffffffffffffffffffffffffffffffffff1673ffffffffffffffffffffffffffffffffffffffff168152602001935050505060405180910390a1505050565b6000809054906101000a900473ffffffffffffffffffffffffffffffffffffffff1673ffffffffffffffffffffffffffffffffffffffff163373ffffffffffffffffffffffffffffffffffffffff16141515610be157600080fd5b6000809054906101000a900473ffffffffffffffffffffffffffffffffffffffff1673ffffffffffffffffffffffffffffffffffffffff16ff5b60008060009054906101000a900473ffffffffffffffffffffffffffffffffffffffff1673ffffffffffffffffffffffffffffffffffffffff163373ffffffffffffffffffffffffffffffffffffffff16141515610c7857600080fd5b3073ffffffffffffffffffffffffffffffffffffffff1631821115610c9c57600080fd5b6000809054906101000a900473ffffffffffffffffffffffffffffffffffffffff1673ffffffffffffffffffffffffffffffffffffffff166108fc839081150290604051600060405180830381858888f193505050501515610cfd57600080fd5b60019050919050565b6000809054906101000a900473ffffffffffffffffffffffffffffffffffffffff1673ffffffffffffffffffffffffffffffffffffffff163373ffffffffffffffffffffffffffffffffffffffff16141515610d6157600080fd5b8060018190555050565b6000809054906101000a900473ffffffffffffffffffffffffffffffffffffffff1673ffffffffffffffffffffffffffffffffffffffff163373ffffffffffffffffffffffffffffffffffffffff16141515610dc657600080fd5b806000806101000a81548173ffffffffffffffffffffffffffffffffffffffff021916908373ffffffffffffffffffffffffffffffffffffffff16021790555050565b60035481565b60026020528060005260406000206000915090508060000154908060010160009054906101000a900473ffffffffffffffffffffffffffffffffffffffff1690806002018054600181600116156101000203166002900480601f016020809104026020016040519081016040528092919081815260200182805460018160011615610100020316600290048015610ee75780601f10610ebc57610100808354040283529160200191610ee7565b820191906000526020600020905b815481529060010190602001808311610eca57829003601f168201915b505050505090806003018054600181600116156101000203166002900480601f016020809104026020016040519081016040528092919081815260200182805460018160011615610100020316600290048015610f855780601f10610f5a57610100808354040283529160200191610f85565b820191906000526020600020905b815481529060010190602001808311610f6857829003601f168201915b505050505090806004018054600181600116156101000203166002900480601f0160208091040260200160405190810160405280929190818152602001828054600181600116156101000203166002900480156110235780601f10610ff857610100808354040283529160200191611023565b820191906000526020600020905b81548152906001019060200180831161100657829003601f168201915b505050505090806005018054600181600116156101000203166002900480601f0160208091040260200160405190810160405280929190818152602001828054600181600116156101000203166002900480156110c15780601f10611096576101008083540402835291602001916110c1565b820191906000526020600020905b8154815290600101906020018083116110a457829003601f168201915b505050505090806006018054600181600116156101000203166002900480601f01602080910402602001604051908101604052809291908181526020018280546001816001161561010002031660029004801561115f5780601f106111345761010080835404028352916020019161115f565b820191906000526020600020905b81548152906001019060200180831161114257829003601f168201915b505050505090806007018054600181600116156101000203166002900480601f0160208091040260200160405190810160405280929190818152602001828054600181600116156101000203166002900480156111fd5780601f106111d2576101008083540402835291602001916111fd565b820191906000526020600020905b8154815290600101906020018083116111e057829003601f168201915b5050505050905088565b6000809054906101000a900473ffffffffffffffffffffffffffffffffffffffff1681565b6101006040519081016040528060008152602001600073ffffffffffffffffffffffffffffffffffffffff1681526020016060815260200160608152602001606081526020016060815260200160608152602001606081525090565b828054600181600116156101000203166002900490600052602060002090601f016020900481019282601f106112c957805160ff19168380011785556112f7565b828001600101855582156112f7579182015b828111156112f65782518255916020019190600101906112db565b5b5090506113049190611308565b5090565b61132a91905b8082111561132657600081600090555060010161130e565b5090565b905600a165627a7a7230582005ae3af17433d8b4ac40970017d9dbaf94f23939e8959e272d7f6a825338ec1d0029",
  "source": "pragma solidity ^0.4.11;\r\ncontract VehicleRegistry\r\n{\r\n    address public admin;\r\n    uint256 commission;\r\n    mapping(uint256=>Vehicle) public vehicles;\r\n    uint256 public NumberOfVehicles;\r\n    \r\n    struct Vehicle\r\n    {\r\n        uint256 id;\r\n        address owner;\r\n        string make;\r\n        string model;\r\n        string year;\r\n        string color;\r\n        string licensePlate;\r\n        string VIN;\r\n    }\r\n    \r\n    event VehicleRegistered(uint256 id,address owner);\r\n    event VehicleTransferred(uint256 id,address OldOwner, address NewOwner);\r\n    \r\n    function Balance()\r\n        public\r\n        constant\r\n        returns(uint256 balance)\r\n    {\r\n        if(msg.sender!=admin) throw;\r\n        return this.balance;\r\n    }\r\n    \r\n    function VehicleRegistry()\r\n    {\r\n        admin=msg.sender;\r\n        NumberOfVehicles=0;\r\n        commission = 1000000000000000000;\r\n    }\r\n    \r\n    //TODO: Try payable via Metamask later\r\n    function RegisterVehicle(\r\n        string make,\r\n        string model,\r\n        string year,\r\n        string color,\r\n        string licensePlate,\r\n        string VIN)\r\n        public\r\n        payable\r\n    {\r\n        if(msg.value<commission) throw;\r\n        Vehicle memory vehicle;\r\n        vehicle.id = NumberOfVehicles;\r\n        vehicle.owner = msg.sender;\r\n        vehicle.make = make;\r\n        vehicle.model=model;\r\n        vehicle.year=year;\r\n        vehicle.color=color;\r\n        vehicle.licensePlate = licensePlate;\r\n        vehicle.VIN=VIN;\r\n        \r\n        vehicles[NumberOfVehicles]=vehicle;\r\n        VehicleRegistered(NumberOfVehicles,vehicle.owner);\r\n        NumberOfVehicles+=1;\r\n    }\r\n   \r\n   function TransferOwnership(uint256 id, address newOwner)\r\n    public\r\n    payable\r\n   {\r\n       if(msg.value<commission) throw;\r\n       if(vehicles[id].owner!=msg.sender) throw;\r\n       address oldOwner = vehicles[id].owner;\r\n       vehicles[id].owner = newOwner;\r\n       VehicleTransferred(id,oldOwner,newOwner);\r\n       \r\n   }\r\n   \r\n   function ChangeAdmin(address newAdmin)\r\n    public\r\n   {\r\n       if(msg.sender!=admin) throw;\r\n       admin = newAdmin;\r\n   }\r\n   \r\n   function SetCommission(uint256 newCommission)\r\n   {\r\n       if(msg.sender!=admin) throw;\r\n       commission = newCommission;\r\n   }\r\n   \r\n    function Withdraw(uint256 balance)\r\n        public\r\n        returns(bool success)\r\n    {\r\n         if(msg.sender!=admin) throw;\r\n         if(balance>this.balance) throw;\r\n         if(!admin.send(balance)) throw;\r\n         return true;\r\n    }\r\n    \r\n    function()\r\n    {\r\n        throw;\r\n    }\r\n    \r\n    function kill()\r\n        public\r\n    {\r\n        if(msg.sender!=admin) throw;\r\n        selfdestruct(admin);\r\n    }\r\n\r\n\r\n   \r\n}",
  "sourcePath": "/mnt/e/Projects/Github/VehicleRegistry_DApp/VehicleRegistry_dApp/contracts/VehicleRegistry.sol",
  "compiler": {
    "name": "solc",
    "version": "0.4.24+commit.e67f0147.Emscripten.clang"
  },
  "schemaVersion": "2.0.0",
  "updatedAt": "2018-06-30T16:18:07.160Z"
}